{
  "contractName": "Airline",
  "abi": [
    {
      "inputs": [],
      "stateMutability": "nonpayable",
      "type": "constructor"
    },
    {
      "anonymous": false,
      "inputs": [
        {
          "indexed": true,
          "internalType": "address",
          "name": "customer",
          "type": "address"
        },
        {
          "indexed": false,
          "internalType": "uint256",
          "name": "price",
          "type": "uint256"
        }
      ],
      "name": "FlightPurchased",
      "type": "event"
    },
    {
      "inputs": [
        {
          "internalType": "address",
          "name": "",
          "type": "address"
        },
        {
          "internalType": "uint256",
          "name": "",
          "type": "uint256"
        }
      ],
      "name": "customerFlights",
      "outputs": [
        {
          "internalType": "string",
          "name": "name",
          "type": "string"
        },
        {
          "internalType": "uint256",
          "name": "price",
          "type": "uint256"
        }
      ],
      "stateMutability": "view",
      "type": "function",
      "constant": true
    },
    {
      "inputs": [
        {
          "internalType": "address",
          "name": "",
          "type": "address"
        }
      ],
      "name": "customerTotalFlights",
      "outputs": [
        {
          "internalType": "uint256",
          "name": "",
          "type": "uint256"
        }
      ],
      "stateMutability": "view",
      "type": "function",
      "constant": true
    },
    {
      "inputs": [
        {
          "internalType": "address",
          "name": "",
          "type": "address"
        }
      ],
      "name": "customers",
      "outputs": [
        {
          "internalType": "uint256",
          "name": "loyaltyPoints",
          "type": "uint256"
        },
        {
          "internalType": "uint256",
          "name": "totalFlights",
          "type": "uint256"
        }
      ],
      "stateMutability": "view",
      "type": "function",
      "constant": true
    },
    {
      "inputs": [
        {
          "internalType": "uint256",
          "name": "",
          "type": "uint256"
        }
      ],
      "name": "flights",
      "outputs": [
        {
          "internalType": "string",
          "name": "name",
          "type": "string"
        },
        {
          "internalType": "uint256",
          "name": "price",
          "type": "uint256"
        }
      ],
      "stateMutability": "view",
      "type": "function",
      "constant": true
    },
    {
      "inputs": [],
      "name": "owner",
      "outputs": [
        {
          "internalType": "address",
          "name": "",
          "type": "address"
        }
      ],
      "stateMutability": "view",
      "type": "function",
      "constant": true
    },
    {
      "inputs": [
        {
          "internalType": "uint256",
          "name": "flightIndex",
          "type": "uint256"
        }
      ],
      "name": "buyFlight",
      "outputs": [],
      "stateMutability": "payable",
      "type": "function",
      "payable": true
    },
    {
      "inputs": [],
      "name": "totalFlights",
      "outputs": [
        {
          "internalType": "uint256",
          "name": "",
          "type": "uint256"
        }
      ],
      "stateMutability": "view",
      "type": "function",
      "constant": true
    },
    {
      "inputs": [],
      "name": "redeemLoyaltyPoints",
      "outputs": [],
      "stateMutability": "nonpayable",
      "type": "function"
    },
    {
      "inputs": [],
      "name": "getEtherPerPoint",
      "outputs": [
        {
          "internalType": "uint256",
          "name": "",
          "type": "uint256"
        }
      ],
      "stateMutability": "view",
      "type": "function",
      "constant": true
    },
    {
      "inputs": [],
      "name": "getRefundableEther",
      "outputs": [
        {
          "internalType": "uint256",
          "name": "",
          "type": "uint256"
        }
      ],
      "stateMutability": "view",
      "type": "function",
      "constant": true
    },
    {
      "inputs": [],
      "name": "getAirlineBalance",
      "outputs": [
        {
          "internalType": "uint256",
          "name": "",
          "type": "uint256"
        }
      ],
      "stateMutability": "view",
      "type": "function",
      "constant": true
    }
  ],
  "bytecode": "0x608060405267016345785d8a00006001553480156200001d57600080fd5b50336000806101000a81548173ffffffffffffffffffffffffffffffffffffffff021916908373ffffffffffffffffffffffffffffffffffffffff160217905550600260405180604001604052806040518060400160405280600581526020017f546f6b696f0000000000000000000000000000000000000000000000000000008152508152602001673782dace9d90000081525090806001815401808255809150506001900390600052602060002090600202016000909190919091506000820151816000019080519060200190620000f99291906200025c565b50602082015181600101555050600260405180604001604052806040518060400160405280600781526020017f4765726d616e790000000000000000000000000000000000000000000000000081525081526020016729a2241af62c000081525090806001815401808255809150506001900390600052602060002090600202016000909190919091506000820151816000019080519060200190620001a19291906200025c565b50602082015181600101555050600260405180604001604052806040518060400160405280600681526020017f4d6164726964000000000000000000000000000000000000000000000000000081525081526020016729a2241af62c000081525090806001815401808255809150506001900390600052602060002090600202016000909190919091506000820151816000019080519060200190620002499291906200025c565b5060208201518160010155505062000371565b8280546200026a906200030c565b90600052602060002090601f0160209004810192826200028e5760008555620002da565b82601f10620002a957805160ff1916838001178555620002da565b82800160010185558215620002da579182015b82811115620002d9578251825591602001919060010190620002bc565b5b509050620002e99190620002ed565b5090565b5b8082111562000308576000816000905550600101620002ee565b5090565b600060028204905060018216806200032557607f821691505b602082108114156200033c576200033b62000342565b5b50919050565b7f4e487b7100000000000000000000000000000000000000000000000000000000600052602260045260246000fd5b610dac80620003816000396000f3fe60806040526004361061009c5760003560e01c806344e3ddfc1161006457806344e3ddfc1461018f5780634bf02e7a146101ba57806381959427146101e55780638da5cb5b14610223578063f269365a1461024e578063f997114f1461028b5761009c565b80630ca97e48146100a157806315ccf70f146100bd5780632411ff73146100fb57806329cd30b414610126578063336989ae14610151575b600080fd5b6100bb60048036038101906100b69190610a14565b6102a2565b005b3480156100c957600080fd5b506100e460048036038101906100df9190610a14565b61055e565b6040516100f2929190610aaf565b60405180910390f35b34801561010757600080fd5b5061011061061a565b60405161011d9190610adf565b60405180910390f35b34801561013257600080fd5b5061013b610676565b6040516101489190610adf565b60405180910390f35b34801561015d57600080fd5b50610178600480360381019061017391906109af565b6106f4565b604051610186929190610afa565b60405180910390f35b34801561019b57600080fd5b506101a4610718565b6040516101b19190610adf565b60405180910390f35b3480156101c657600080fd5b506101cf610722565b6040516101dc9190610adf565b60405180910390f35b3480156101f157600080fd5b5061020c600480360381019061020791906109d8565b61072f565b60405161021a929190610aaf565b60405180910390f35b34801561022f57600080fd5b506102386107f8565b6040516102459190610a94565b60405180910390f35b34801561025a57600080fd5b50610275600480360381019061027091906109af565b61081c565b6040516102829190610adf565b60405180910390f35b34801561029757600080fd5b506102a0610834565b005b6000600282815481106102de577f4e487b7100000000000000000000000000000000000000000000000000000000600052603260045260246000fd5b906000526020600020906002020160405180604001604052908160008201805461030790610c5e565b80601f016020809104026020016040519081016040528092919081815260200182805461033390610c5e565b80156103805780601f1061035557610100808354040283529160200191610380565b820191906000526020600020905b81548152906001019060200180831161036357829003601f168201915b505050505081526020016001820154815250509050806020015134146103a557600080fd5b6000600360003373ffffffffffffffffffffffffffffffffffffffff1673ffffffffffffffffffffffffffffffffffffffff168152602001908152602001600020905060058160000160008282546103fd9190610b3f565b9250508190555060018160010160008282546104199190610b3f565b92505081905550600460003373ffffffffffffffffffffffffffffffffffffffff1673ffffffffffffffffffffffffffffffffffffffff16815260200190815260200160002082908060018154018082558091505060019003906000526020600020906002020160009091909190915060008201518160000190805190602001906104a59291906108e2565b50602082015181600101555050600560003373ffffffffffffffffffffffffffffffffffffffff1673ffffffffffffffffffffffffffffffffffffffff168152602001908152602001600020600081548092919061050290610c90565b91905055503373ffffffffffffffffffffffffffffffffffffffff167f8644b0eb56c7a568d35c9f35feeacfcdb42c3cfe3deb99e35d6ac27df853a08c83602001516040516105519190610adf565b60405180910390a2505050565b6002818154811061056e57600080fd5b906000526020600020906002020160009150905080600001805461059190610c5e565b80601f01602080910402602001604051908101604052809291908181526020018280546105bd90610c5e565b801561060a5780601f106105df5761010080835404028352916020019161060a565b820191906000526020600020905b8154815290600101906020018083116105ed57829003601f168201915b5050505050908060010154905082565b600080600360003373ffffffffffffffffffffffffffffffffffffffff1673ffffffffffffffffffffffffffffffffffffffff1681526020019081526020016000206000015460015461066d9190610b95565b90508091505090565b60008060009054906101000a900473ffffffffffffffffffffffffffffffffffffffff1673ffffffffffffffffffffffffffffffffffffffff163373ffffffffffffffffffffffffffffffffffffffff16146106d157600080fd5b60003090508073ffffffffffffffffffffffffffffffffffffffff163191505090565b60036020528060005260406000206000915090508060000154908060010154905082565b6000600154905090565b6000600280549050905090565b6004602052816000526040600020818154811061074b57600080fd5b90600052602060002090600202016000915091505080600001805461076f90610c5e565b80601f016020809104026020016040519081016040528092919081815260200182805461079b90610c5e565b80156107e85780601f106107bd576101008083540402835291602001916107e8565b820191906000526020600020905b8154815290600101906020018083116107cb57829003601f168201915b5050505050908060010154905082565b60008054906101000a900473ffffffffffffffffffffffffffffffffffffffff1681565b60056020528060005260406000206000915090505481565b6000600360003373ffffffffffffffffffffffffffffffffffffffff1673ffffffffffffffffffffffffffffffffffffffff16815260200190815260200160002090506000816000015460015461088b9190610b95565b90503373ffffffffffffffffffffffffffffffffffffffff166108fc829081150290604051600060405180830381858888f193505050501580156108d3573d6000803e3d6000fd5b50600082600001819055505050565b8280546108ee90610c5e565b90600052602060002090601f0160209004810192826109105760008555610957565b82601f1061092957805160ff1916838001178555610957565b82800160010185558215610957579182015b8281111561095657825182559160200191906001019061093b565b5b5090506109649190610968565b5090565b5b80821115610981576000816000905550600101610969565b5090565b60008135905061099481610d48565b92915050565b6000813590506109a981610d5f565b92915050565b6000602082840312156109c157600080fd5b60006109cf84828501610985565b91505092915050565b600080604083850312156109eb57600080fd5b60006109f985828601610985565b9250506020610a0a8582860161099a565b9150509250929050565b600060208284031215610a2657600080fd5b6000610a348482850161099a565b91505092915050565b610a4681610bef565b82525050565b6000610a5782610b23565b610a618185610b2e565b9350610a71818560208601610c2b565b610a7a81610d37565b840191505092915050565b610a8e81610c21565b82525050565b6000602082019050610aa96000830184610a3d565b92915050565b60006040820190508181036000830152610ac98185610a4c565b9050610ad86020830184610a85565b9392505050565b6000602082019050610af46000830184610a85565b92915050565b6000604082019050610b0f6000830185610a85565b610b1c6020830184610a85565b9392505050565b600081519050919050565b600082825260208201905092915050565b6000610b4a82610c21565b9150610b5583610c21565b9250827fffffffffffffffffffffffffffffffffffffffffffffffffffffffffffffffff03821115610b8a57610b89610cd9565b5b828201905092915050565b6000610ba082610c21565b9150610bab83610c21565b9250817fffffffffffffffffffffffffffffffffffffffffffffffffffffffffffffffff0483118215151615610be457610be3610cd9565b5b828202905092915050565b6000610bfa82610c01565b9050919050565b600073ffffffffffffffffffffffffffffffffffffffff82169050919050565b6000819050919050565b60005b83811015610c49578082015181840152602081019050610c2e565b83811115610c58576000848401525b50505050565b60006002820490506001821680610c7657607f821691505b60208210811415610c8a57610c89610d08565b5b50919050565b6000610c9b82610c21565b91507fffffffffffffffffffffffffffffffffffffffffffffffffffffffffffffffff821415610cce57610ccd610cd9565b5b600182019050919050565b7f4e487b7100000000000000000000000000000000000000000000000000000000600052601160045260246000fd5b7f4e487b7100000000000000000000000000000000000000000000000000000000600052602260045260246000fd5b6000601f19601f8301169050919050565b610d5181610bef565b8114610d5c57600080fd5b50565b610d6881610c21565b8114610d7357600080fd5b5056fea2646970667358221220f9071fd62987e68555591d226b5ee5b84b14cd1bc13f0b9ceddd4001170e8bb264736f6c63430008000033",
  "immutableReferences": {},
  "source": "// SPDX-License-Identifier: MIT\npragma solidity >=0.4.22 <0.9.0;\n\ncontract Airline {\n    address public owner;\n\n    struct Customer {  \n        uint loyaltyPoints;\n        uint totalFlights;\n    }\n\n    struct Flight {\n        string name;\n        uint256 price;\n    }\n\n    uint etherPerPoint = 0.1 ether;\n\n    Flight[] public flights;\n\n    mapping(address => Customer) public customers;\n    mapping(address => Flight[]) public customerFlights;\n    mapping(address => uint) public customerTotalFlights;\n\n    event FlightPurchased(address indexed customer, uint price);\n\n    constructor() {\n        owner = msg.sender;\n        flights.push(Flight('Tokio', 4 ether));\n        flights.push(Flight('Germany', 3 ether));\n        flights.push(Flight('Madrid', 3 ether));\n    }\n\n    function buyFlight(uint flightIndex) public payable {\n        \n        Flight memory flight = flights[flightIndex];\n        require(msg.value == flight.price);\n\n        Customer storage customer = customers[msg.sender];\n        customer.loyaltyPoints += 5;\n        customer.totalFlights += 1;\n        customerFlights[msg.sender].push(flight);\n        customerTotalFlights[msg.sender] ++;\n\n        emit FlightPurchased(msg.sender, flight.price);\n    }\n\n    function totalFlights() public view returns (uint) {\n        return flights.length;\n    }\n\n    function redeemLoyaltyPoints() public {\n        Customer storage customer = customers[msg.sender];\n        uint etherToRefund = etherPerPoint * customer.loyaltyPoints;\n        payable(msg.sender).transfer(etherToRefund);\n        customer.loyaltyPoints = 0;\n    }\n\n    function getEtherPerPoint() public view returns (uint) {\n        return etherPerPoint;\n    }\n\n    function getRefundableEther() public view returns (uint) {\n        uint etherToRefund = etherPerPoint * customers[msg.sender].loyaltyPoints;\n        return etherToRefund;\n    }\n    \n    function getAirlineBalance() public isOwner view returns (uint) {\n        address airlineAddress = address(this);\n        return airlineAddress.balance; \n    }\n\n    modifier isOwner() {\n        require(msg.sender == owner);\n        _;\n    }\n\n}",
  "sourcePath": "/Users/aplle/Projects/Blockchain/ethereum/airlines-dapp/src/truffle/contracts/Airline.sol",
  "compiler": {
    "name": "solc",
    "version": "0.8.0+commit.c7dfd78e.Emscripten.clang"
  },
  "schemaVersion": "3.4.3",
  "updatedAt": "2022-01-20T19:03:35.955Z",
  "networkType": "ethereum",
  "devdoc": {
    "kind": "dev",
    "methods": {},
    "version": 1
  },
  "userdoc": {
    "kind": "user",
    "methods": {},
    "version": 1
  }
}